{
	"_format": "hh-sol-artifact-1",
	"contractName": "LancaParentPool",
	"sourceName": "contracts/pools/LancaParentPool.sol",
	"abi": [
		{
			"inputs": [
				{
					"components": [
						{
							"internalType": "address",
							"name": "link",
							"type": "address"
						},
						{
							"internalType": "address",
							"name": "usdc",
							"type": "address"
						},
						{
							"internalType": "address",
							"name": "lpToken",
							"type": "address"
						}
					],
					"internalType": "struct LancaParentPool.TokenConfig",
					"name": "tokenConfig",
					"type": "tuple"
				},
				{
					"components": [
						{
							"internalType": "address",
							"name": "ccipRouter",
							"type": "address"
						},
						{
							"internalType": "address",
							"name": "automationForwarder",
							"type": "address"
						},
						{
							"internalType": "address",
							"name": "owner",
							"type": "address"
						},
						{
							"internalType": "address",
							"name": "lancaParentPoolCLFCLA",
							"type": "address"
						},
						{
							"internalType": "address",
							"name": "lancaBridge",
							"type": "address"
						},
						{
							"internalType": "address",
							"name": "clfRouter",
							"type": "address"
						},
						{
							"internalType": "address[3]",
							"name": "messengers",
							"type": "address[3]"
						}
					],
					"internalType": "struct LancaParentPool.AddressConfig",
					"name": "addressConfig",
					"type": "tuple"
				},
				{
					"components": [
						{
							"internalType": "bytes32",
							"name": "distributeLiquidityJs",
							"type": "bytes32"
						},
						{
							"internalType": "bytes32",
							"name": "ethersJs",
							"type": "bytes32"
						},
						{
							"internalType": "bytes32",
							"name": "getChildPoolsLiquidityJsCodeHashSum",
							"type": "bytes32"
						}
					],
					"internalType": "struct LancaParentPool.HashConfig",
					"name": "hashConfig",
					"type": "tuple"
				},
				{
					"components": [
						{
							"internalType": "uint256",
							"name": "minDepositAmount",
							"type": "uint256"
						},
						{
							"internalType": "uint256",
							"name": "depositFeeAmount",
							"type": "uint256"
						}
					],
					"internalType": "struct LancaParentPool.PoolConfig",
					"name": "poolConfig",
					"type": "tuple"
				}
			],
			"stateMutability": "nonpayable",
			"type": "constructor"
		},
		{
			"inputs": [],
			"name": "DepositAmountBelowMinimum",
			"type": "error"
		},
		{
			"inputs": [],
			"name": "DepositDeadlinePassed",
			"type": "error"
		},
		{
			"inputs": [],
			"name": "DepositRequestNotReady",
			"type": "error"
		},
		{
			"inputs": [],
			"name": "DepositsOnTheWayArrayFull",
			"type": "error"
		},
		{
			"inputs": [],
			"name": "DistributeLiquidityRequestAlreadyProceeded",
			"type": "error"
		},
		{
			"inputs": [
				{
					"internalType": "enum LibErrors.InvalidAddressType",
					"name": "errorType",
					"type": "uint8"
				}
			],
			"name": "InvalidAddress",
			"type": "error"
		},
		{
			"inputs": [],
			"name": "InvalidCcipTxType",
			"type": "error"
		},
		{
			"inputs": [
				{
					"internalType": "address",
					"name": "router",
					"type": "address"
				}
			],
			"name": "InvalidRouter",
			"type": "error"
		},
		{
			"inputs": [],
			"name": "MaxDepositCapReached",
			"type": "error"
		},
		{
			"inputs": [],
			"name": "NotAllowedToCompleteDeposit",
			"type": "error"
		},
		{
			"inputs": [
				{
					"internalType": "address",
					"name": "caller",
					"type": "address"
				}
			],
			"name": "OnlyRouterCanFulfill",
			"type": "error"
		},
		{
			"inputs": [
				{
					"internalType": "address",
					"name": "token",
					"type": "address"
				}
			],
			"name": "SafeERC20FailedOperation",
			"type": "error"
		},
		{
			"inputs": [
				{
					"internalType": "address",
					"name": "sender",
					"type": "address"
				}
			],
			"name": "SenderNotAllowed",
			"type": "error"
		},
		{
			"inputs": [
				{
					"internalType": "enum LibErrors.UnauthorizedType",
					"name": "errorType",
					"type": "uint8"
				}
			],
			"name": "Unauthorized",
			"type": "error"
		},
		{
			"inputs": [],
			"name": "WithdrawAmountBelowMinimum",
			"type": "error"
		},
		{
			"inputs": [
				{
					"internalType": "bytes32",
					"name": "withdrawalId",
					"type": "bytes32"
				}
			],
			"name": "WithdrawRequestDoesntExist",
			"type": "error"
		},
		{
			"inputs": [],
			"name": "WithdrawalAlreadyTriggered",
			"type": "error"
		},
		{
			"inputs": [],
			"name": "WithdrawalRequestAlreadyExists",
			"type": "error"
		},
		{
			"anonymous": false,
			"inputs": [
				{
					"indexed": true,
					"internalType": "bytes32",
					"name": "ccipMessageId",
					"type": "bytes32"
				},
				{
					"indexed": false,
					"internalType": "uint64",
					"name": "srcChainSelector",
					"type": "uint64"
				},
				{
					"indexed": false,
					"internalType": "address",
					"name": "sender",
					"type": "address"
				},
				{
					"indexed": false,
					"internalType": "address",
					"name": "token",
					"type": "address"
				},
				{
					"indexed": false,
					"internalType": "uint256",
					"name": "amount",
					"type": "uint256"
				}
			],
			"name": "CCIPReceived",
			"type": "event"
		},
		{
			"anonymous": false,
			"inputs": [
				{
					"indexed": true,
					"internalType": "bytes32",
					"name": "messageId",
					"type": "bytes32"
				},
				{
					"indexed": false,
					"internalType": "uint64",
					"name": "destinationChainSelector",
					"type": "uint64"
				},
				{
					"indexed": false,
					"internalType": "address",
					"name": "receiver",
					"type": "address"
				},
				{
					"indexed": false,
					"internalType": "uint256",
					"name": "amount",
					"type": "uint256"
				}
			],
			"name": "CCIPSent",
			"type": "event"
		},
		{
			"anonymous": false,
			"inputs": [
				{
					"indexed": true,
					"internalType": "bytes32",
					"name": "requestId",
					"type": "bytes32"
				},
				{
					"indexed": true,
					"internalType": "address",
					"name": "lpAddress",
					"type": "address"
				},
				{
					"indexed": false,
					"internalType": "uint256",
					"name": "amount",
					"type": "uint256"
				},
				{
					"indexed": false,
					"internalType": "uint256",
					"name": "lpTokensToMint",
					"type": "uint256"
				}
			],
			"name": "DepositCompleted",
			"type": "event"
		},
		{
			"anonymous": false,
			"inputs": [
				{
					"indexed": true,
					"internalType": "bytes32",
					"name": "requestId",
					"type": "bytes32"
				},
				{
					"indexed": true,
					"internalType": "address",
					"name": "lpAddress",
					"type": "address"
				},
				{
					"indexed": false,
					"internalType": "uint256",
					"name": "amount",
					"type": "uint256"
				},
				{
					"indexed": false,
					"internalType": "uint256",
					"name": "deadline",
					"type": "uint256"
				}
			],
			"name": "DepositInitiated",
			"type": "event"
		},
		{
			"anonymous": false,
			"inputs": [
				{
					"indexed": true,
					"internalType": "bytes32",
					"name": "requestId",
					"type": "bytes32"
				},
				{
					"indexed": true,
					"internalType": "address",
					"name": "lpAddress",
					"type": "address"
				},
				{
					"indexed": false,
					"internalType": "address",
					"name": "token",
					"type": "address"
				},
				{
					"indexed": false,
					"internalType": "uint256",
					"name": "amount",
					"type": "uint256"
				}
			],
			"name": "WithdrawalCompleted",
			"type": "event"
		},
		{
			"inputs": [
				{
					"internalType": "uint256",
					"name": "childPoolsBalance",
					"type": "uint256"
				},
				{
					"internalType": "uint256",
					"name": "amountToDeposit",
					"type": "uint256"
				}
			],
			"name": "calculateLPTokensToMint",
			"outputs": [
				{
					"internalType": "uint256",
					"name": "",
					"type": "uint256"
				}
			],
			"stateMutability": "view",
			"type": "function"
		},
		{
			"inputs": [
				{
					"internalType": "uint256",
					"name": "childPoolsBalance",
					"type": "uint256"
				},
				{
					"internalType": "uint256",
					"name": "clpAmount",
					"type": "uint256"
				}
			],
			"name": "calculateWithdrawableAmount",
			"outputs": [
				{
					"internalType": "uint256",
					"name": "",
					"type": "uint256"
				}
			],
			"stateMutability": "view",
			"type": "function"
		},
		{
			"inputs": [
				{
					"internalType": "uint256",
					"name": "childPoolsBalance",
					"type": "uint256"
				},
				{
					"internalType": "uint256",
					"name": "clpAmount",
					"type": "uint256"
				}
			],
			"name": "calculateWithdrawableAmountViaDelegateCall",
			"outputs": [
				{
					"internalType": "uint256",
					"name": "",
					"type": "uint256"
				}
			],
			"stateMutability": "nonpayable",
			"type": "function"
		},
		{
			"inputs": [
				{
					"components": [
						{
							"internalType": "bytes32",
							"name": "messageId",
							"type": "bytes32"
						},
						{
							"internalType": "uint64",
							"name": "sourceChainSelector",
							"type": "uint64"
						},
						{
							"internalType": "bytes",
							"name": "sender",
							"type": "bytes"
						},
						{
							"internalType": "bytes",
							"name": "data",
							"type": "bytes"
						},
						{
							"components": [
								{
									"internalType": "address",
									"name": "token",
									"type": "address"
								},
								{
									"internalType": "uint256",
									"name": "amount",
									"type": "uint256"
								}
							],
							"internalType": "struct Client.EVMTokenAmount[]",
							"name": "destTokenAmounts",
							"type": "tuple[]"
						}
					],
					"internalType": "struct Client.Any2EVMMessage",
					"name": "message",
					"type": "tuple"
				}
			],
			"name": "ccipReceive",
			"outputs": [],
			"stateMutability": "nonpayable",
			"type": "function"
		},
		{
			"inputs": [
				{
					"internalType": "bytes",
					"name": "",
					"type": "bytes"
				}
			],
			"name": "checkUpkeep",
			"outputs": [
				{
					"internalType": "bool",
					"name": "",
					"type": "bool"
				},
				{
					"internalType": "bytes",
					"name": "",
					"type": "bytes"
				}
			],
			"stateMutability": "view",
			"type": "function"
		},
		{
			"inputs": [],
			"name": "checkUpkeepViaDelegate",
			"outputs": [
				{
					"internalType": "bool",
					"name": "",
					"type": "bool"
				},
				{
					"internalType": "bytes",
					"name": "",
					"type": "bytes"
				}
			],
			"stateMutability": "nonpayable",
			"type": "function"
		},
		{
			"inputs": [
				{
					"internalType": "bytes32",
					"name": "depositRequestId",
					"type": "bytes32"
				}
			],
			"name": "completeDeposit",
			"outputs": [],
			"stateMutability": "nonpayable",
			"type": "function"
		},
		{
			"inputs": [
				{
					"internalType": "bytes32",
					"name": "id",
					"type": "bytes32"
				},
				{
					"internalType": "uint256",
					"name": "amount",
					"type": "uint256"
				}
			],
			"name": "completeRebalancing",
			"outputs": [],
			"stateMutability": "nonpayable",
			"type": "function"
		},
		{
			"inputs": [
				{
					"internalType": "uint64",
					"name": "chainSelector",
					"type": "uint64"
				},
				{
					"internalType": "uint256",
					"name": "amountToSend",
					"type": "uint256"
				},
				{
					"internalType": "bytes32",
					"name": "requestId",
					"type": "bytes32"
				}
			],
			"name": "distributeLiquidity",
			"outputs": [],
			"stateMutability": "nonpayable",
			"type": "function"
		},
		{
			"inputs": [
				{
					"internalType": "bytes32",
					"name": "clfReqId",
					"type": "bytes32"
				}
			],
			"name": "getClfReqTypeById",
			"outputs": [
				{
					"internalType": "enum ILancaParentPool.ClfRequestType",
					"name": "",
					"type": "uint8"
				}
			],
			"stateMutability": "view",
			"type": "function"
		},
		{
			"inputs": [],
			"name": "getDepositDeadlineSeconds",
			"outputs": [
				{
					"internalType": "uint256",
					"name": "",
					"type": "uint256"
				}
			],
			"stateMutability": "pure",
			"type": "function"
		},
		{
			"inputs": [
				{
					"internalType": "bytes32",
					"name": "clfReqId",
					"type": "bytes32"
				}
			],
			"name": "getDepositRequestById",
			"outputs": [
				{
					"components": [
						{
							"internalType": "address",
							"name": "lpAddress",
							"type": "address"
						},
						{
							"internalType": "uint256",
							"name": "childPoolsLiquiditySnapshot",
							"type": "uint256"
						},
						{
							"internalType": "uint256",
							"name": "usdcAmountToDeposit",
							"type": "uint256"
						},
						{
							"internalType": "uint256",
							"name": "deadline",
							"type": "uint256"
						}
					],
					"internalType": "struct ILancaParentPool.DepositRequest",
					"name": "",
					"type": "tuple"
				}
			],
			"stateMutability": "view",
			"type": "function"
		},
		{
			"inputs": [],
			"name": "getDepositsOnTheWay",
			"outputs": [
				{
					"components": [
						{
							"internalType": "uint64",
							"name": "chainSelector",
							"type": "uint64"
						},
						{
							"internalType": "bytes32",
							"name": "ccipMessageId",
							"type": "bytes32"
						},
						{
							"internalType": "uint256",
							"name": "amount",
							"type": "uint256"
						}
					],
					"internalType": "struct ILancaParentPool.DepositOnTheWay[150]",
					"name": "",
					"type": "tuple[150]"
				}
			],
			"stateMutability": "view",
			"type": "function"
		},
		{
			"inputs": [
				{
					"internalType": "uint64",
					"name": "chainSelector",
					"type": "uint64"
				}
			],
			"name": "getDstPoolByChainSelector",
			"outputs": [
				{
					"internalType": "address",
					"name": "",
					"type": "address"
				}
			],
			"stateMutability": "view",
			"type": "function"
		},
		{
			"inputs": [
				{
					"internalType": "uint256",
					"name": "amount",
					"type": "uint256"
				}
			],
			"name": "getDstTotalFeeInUsdc",
			"outputs": [
				{
					"internalType": "uint256",
					"name": "",
					"type": "uint256"
				}
			],
			"stateMutability": "pure",
			"type": "function"
		},
		{
			"inputs": [],
			"name": "getLiquidityCap",
			"outputs": [
				{
					"internalType": "uint256",
					"name": "",
					"type": "uint256"
				}
			],
			"stateMutability": "view",
			"type": "function"
		},
		{
			"inputs": [],
			"name": "getMinDepositAmount",
			"outputs": [
				{
					"internalType": "uint256",
					"name": "",
					"type": "uint256"
				}
			],
			"stateMutability": "view",
			"type": "function"
		},
		{
			"inputs": [],
			"name": "getOwner",
			"outputs": [
				{
					"internalType": "address",
					"name": "",
					"type": "address"
				}
			],
			"stateMutability": "view",
			"type": "function"
		},
		{
			"inputs": [],
			"name": "getPendingWithdrawalRequestIds",
			"outputs": [
				{
					"internalType": "bytes32[]",
					"name": "",
					"type": "bytes32[]"
				}
			],
			"stateMutability": "view",
			"type": "function"
		},
		{
			"inputs": [],
			"name": "getRouter",
			"outputs": [
				{
					"internalType": "address",
					"name": "",
					"type": "address"
				}
			],
			"stateMutability": "view",
			"type": "function"
		},
		{
			"inputs": [],
			"name": "getUsdcLoansInUse",
			"outputs": [
				{
					"internalType": "uint256",
					"name": "",
					"type": "uint256"
				}
			],
			"stateMutability": "view",
			"type": "function"
		},
		{
			"inputs": [
				{
					"internalType": "address",
					"name": "lpAddress",
					"type": "address"
				}
			],
			"name": "getWithdrawalIdByLPAddress",
			"outputs": [
				{
					"internalType": "bytes32",
					"name": "",
					"type": "bytes32"
				}
			],
			"stateMutability": "view",
			"type": "function"
		},
		{
			"inputs": [
				{
					"internalType": "bytes32",
					"name": "withdrawalId",
					"type": "bytes32"
				}
			],
			"name": "getWithdrawalRequestById",
			"outputs": [
				{
					"components": [
						{
							"internalType": "address",
							"name": "lpAddress",
							"type": "address"
						},
						{
							"internalType": "uint256",
							"name": "lpAmountToBurn",
							"type": "uint256"
						},
						{
							"internalType": "uint256",
							"name": "totalCrossChainLiquiditySnapshot",
							"type": "uint256"
						},
						{
							"internalType": "uint256",
							"name": "amountToWithdraw",
							"type": "uint256"
						},
						{
							"internalType": "uint256",
							"name": "liquidityRequestedFromEachPool",
							"type": "uint256"
						},
						{
							"internalType": "uint256",
							"name": "remainingLiquidityFromChildPools",
							"type": "uint256"
						},
						{
							"internalType": "uint256",
							"name": "triggeredAtTimestamp",
							"type": "uint256"
						}
					],
					"internalType": "struct ILancaParentPool.WithdrawRequest",
					"name": "",
					"type": "tuple"
				}
			],
			"stateMutability": "view",
			"type": "function"
		},
		{
			"inputs": [],
			"name": "getWithdrawalsOnTheWayAmount",
			"outputs": [
				{
					"internalType": "uint256",
					"name": "",
					"type": "uint256"
				}
			],
			"stateMutability": "view",
			"type": "function"
		},
		{
			"inputs": [
				{
					"internalType": "bytes32",
					"name": "requestId",
					"type": "bytes32"
				},
				{
					"internalType": "bytes",
					"name": "delegateCallResponse",
					"type": "bytes"
				},
				{
					"internalType": "bytes",
					"name": "err",
					"type": "bytes"
				}
			],
			"name": "handleOracleFulfillment",
			"outputs": [],
			"stateMutability": "nonpayable",
			"type": "function"
		},
		{
			"inputs": [],
			"name": "isFull",
			"outputs": [
				{
					"internalType": "bool",
					"name": "",
					"type": "bool"
				}
			],
			"stateMutability": "view",
			"type": "function"
		},
		{
			"inputs": [
				{
					"internalType": "bytes",
					"name": "performData",
					"type": "bytes"
				}
			],
			"name": "performUpkeep",
			"outputs": [],
			"stateMutability": "nonpayable",
			"type": "function"
		},
		{
			"inputs": [
				{
					"internalType": "uint64",
					"name": "chainSelector",
					"type": "uint64"
				}
			],
			"name": "removePools",
			"outputs": [],
			"stateMutability": "payable",
			"type": "function"
		},
		{
			"inputs": [],
			"name": "retryPerformWithdrawalRequest",
			"outputs": [],
			"stateMutability": "nonpayable",
			"type": "function"
		},
		{
			"inputs": [
				{
					"internalType": "uint64",
					"name": "chainSelector",
					"type": "uint64"
				},
				{
					"internalType": "address",
					"name": "poolAddress",
					"type": "address"
				}
			],
			"name": "s_isSenderContractAllowed",
			"outputs": [
				{
					"internalType": "bool",
					"name": "",
					"type": "bool"
				}
			],
			"stateMutability": "view",
			"type": "function"
		},
		{
			"inputs": [
				{
					"internalType": "uint64",
					"name": "chainSelector",
					"type": "uint64"
				},
				{
					"internalType": "address",
					"name": "pool",
					"type": "address"
				},
				{
					"internalType": "bool",
					"name": "isRebalancingNeeded",
					"type": "bool"
				}
			],
			"name": "setDstPool",
			"outputs": [],
			"stateMutability": "payable",
			"type": "function"
		},
		{
			"inputs": [
				{
					"internalType": "uint256",
					"name": "newCap",
					"type": "uint256"
				}
			],
			"name": "setPoolCap",
			"outputs": [],
			"stateMutability": "payable",
			"type": "function"
		},
		{
			"inputs": [
				{
					"internalType": "uint256",
					"name": "usdcAmount",
					"type": "uint256"
				}
			],
			"name": "startDeposit",
			"outputs": [
				{
					"internalType": "bytes32",
					"name": "",
					"type": "bytes32"
				}
			],
			"stateMutability": "nonpayable",
			"type": "function"
		},
		{
			"inputs": [
				{
					"internalType": "uint256",
					"name": "lpAmount",
					"type": "uint256"
				}
			],
			"name": "startWithdrawal",
			"outputs": [],
			"stateMutability": "nonpayable",
			"type": "function"
		},
		{
			"inputs": [
				{
					"internalType": "bytes4",
					"name": "interfaceId",
					"type": "bytes4"
				}
			],
			"name": "supportsInterface",
			"outputs": [
				{
					"internalType": "bool",
					"name": "",
					"type": "bool"
				}
			],
			"stateMutability": "view",
			"type": "function"
		},
		{
			"inputs": [
				{
					"internalType": "address",
					"name": "token",
					"type": "address"
				},
				{
					"internalType": "uint256",
					"name": "amount",
					"type": "uint256"
				},
				{
					"internalType": "address",
					"name": "receiver",
					"type": "address"
				}
			],
			"name": "takeLoan",
			"outputs": [
				{
					"internalType": "uint256",
					"name": "",
					"type": "uint256"
				}
			],
			"stateMutability": "nonpayable",
			"type": "function"
		},
		{
			"inputs": [],
			"name": "withdrawDepositFees",
			"outputs": [],
			"stateMutability": "payable",
			"type": "function"
		},
		{
			"stateMutability": "payable",
			"type": "receive"
		}
	],
	"bytecode": "0x6102a060405234801561001157600080fd5b5060405161461a38038061461a83398101604081905261003091610246565b8251604080860151908501516020870151608087015160c08801518360006001600160a01b03821661007f576040516317cb19f160e21b815260040161007691906103a6565b60405180910390fd5b506001600160a01b0390811660805292831660a05290821660c0528051821660e052602081015182166101005260400151811661012052918216610140525081166100e0576040516335fdcccd60e21b815260006004820152602401610076565b6001600160a01b03908116610160529351841661018052606083015184166101a05260a083015184166101c0526020928301519093166101e052805161020052604081015161022052810151610240528151610260520151610280526103ce565b634e487b7160e01b600052604160045260246000fd5b604051606081016001600160401b038111828210171561017957610179610141565b60405290565b60405160e081016001600160401b038111828210171561017957610179610141565b80516001600160a01b03811681146101b857600080fd5b919050565b6000606082840312156101cf57600080fd5b6101d7610157565b82518152602080840151908201526040928301519281019290925250919050565b60006040828403121561020a57600080fd5b604080519081016001600160401b038111828210171561022c5761022c610141565b604052825181526020928301519281019290925250919050565b60008060008084860361022081121561025e57600080fd5b606081121561026c57600080fd5b610274610157565b61027d876101a1565b815261028b602088016101a1565b602082015261029c604088016101a1565b60408201529450610120605f19820112156102b657600080fd5b506102bf61017f565b6102cb606087016101a1565b81526102d9608087016101a1565b60208201526102ea60a087016101a1565b60408201526102fb60c087016101a1565b606082015261030c60e087016101a1565b608082015261031e61010087016101a1565b60a08201528661013f87011261033357600080fd5b61033b610157565b8061018088018981111561034e57600080fd5b61012089015b8181101561037357610365816101a1565b845260209384019301610354565b508160c08501528396506103878a826101bd565b95505050505061039b866101e087016101f8565b905092959194509250565b60208101600483106103c857634e487b7160e01b600052602160045260246000fd5b91905290565b60805160a05160c05160e05161010051610120516101405161016051610180516101a0516101c0516101e05161020051610220516102405161026051610280516140736105a760003960008181610dd10152610f3f0152600081816107650152818161139301526118240152600081816115f0015281816119cd0152611dc80152600081816119760152611d710152600061159901526000610a84015260006108cb01526000818161096f01528181610b1a01528181611038015281816117f101528181611b0001528181611cc201528181611f30015261208001526000818161252d0152612e7801526000818161060301528181610d54015281816123a101528181612445015281816124fe01526125b2015260008181610ed601528181611eb201528181612808015261305b015260006122c4015260006122880152600061224d015260008181610c2701526120d3015260008181610c7401528181610e88015281816110df0152818161131a015281816118890152818161214001528181612375015281816124770152818161276b015281816129dd015281816130c601526130fd01526000818161055f015281816110890152818161110101528181611133015281816113fa0152611bdd01526140736000f3fe60806040526004361061021e5760003560e01c8063929ce91111610123578063cb4a9fc9116100ab578063e69bb20d1161006f578063e69bb20d14610701578063f3141e8014610721578063f364c1e614610736578063f4914d3314610756578063fce32c6d1461078957600080fd5b8063cb4a9fc914610684578063d4602f1214610697578063d835f535146106b7578063dad35590146106ca578063de5dff36146106ec57600080fd5b8063b0f479a1116100f2578063b0f479a1146105f4578063b15a49c114610627578063b22326571461063c578063babd3d9a1461064f578063c0279b251461066457600080fd5b8063929ce911146105a35780639a7c3c52146105b8578063aac0167b146105d8578063accfe54b146105e057600080fd5b80634b55ab86116101a65780636e04ff0d116101755780636e04ff0d146104e257806384d5b8d31461051057806385572ffb14610530578063893d20e8146105505780638c503dc41461058357600080fd5b80634b55ab8614610407578063526cf21e146104295780635746f77a1461046657806366be9c14146104c257600080fd5b80630ca76175116101ed5780630ca76175146102da57806339a73973146102fa5780633ea5f26d146103325780634536ca721461036d5780634585e33b146103e757600080fd5b806301ffc9a71461022a57806303851d051461025f57806307367349146102a35780630bde6004146102c557600080fd5b3661022557005b600080fd5b34801561023657600080fd5b5061024a61024536600461340e565b6107a9565b60405190151581526020015b60405180910390f35b34801561026b57600080fd5b5061029561027a36600461344d565b6001600160a01b031660009081526043602052604090205490565b604051908152602001610256565b3480156102af57600080fd5b506102c36102be366004613481565b6107e0565b005b3480156102d157600080fd5b506102956108b0565b3480156102e657600080fd5b506102c36102f53660046135c1565b6108c0565b34801561030657600080fd5b5061031a610315366004613631565b61099b565b6040516001600160a01b039091168152602001610256565b34801561033e57600080fd5b5061024a61034d36600461364c565b603f60209081526000928352604080842090915290825290205460ff1681565b34801561037957600080fd5b5061038d610388366004613683565b6109c2565b604051610256919081516001600160a01b031681526020808301519082015260408083015190820152606080830151908201526080808301519082015260a0828101519082015260c0918201519181019190915260e00190565b3480156103f357600080fd5b506102c361040236600461369c565b610a77565b34801561041357600080fd5b5061041c610b3f565b604051610256919061370e565b34801561043557600080fd5b50610459610444366004613683565b60009081526041602052604090205460ff1690565b6040516102569190613767565b34801561047257600080fd5b50610486610481366004613683565b610b98565b604051610256919081516001600160a01b0316815260208083015190820152604080830151908201526060918201519181019190915260800190565b3480156104ce57600080fd5b506102c36104dd366004613781565b610c1a565b3480156104ee57600080fd5b506105026104fd36600461369c565b610cbc565b6040516102569291906137f3565b34801561051c57600080fd5b5061029561052b366004613781565b610d36565b34801561053c57600080fd5b506102c361054b36600461380e565b610d49565b34801561055c57600080fd5b507f000000000000000000000000000000000000000000000000000000000000000061031a565b34801561058f57600080fd5b506102c361059e366004613683565b610da8565b3480156105af57600080fd5b50600954610295565b3480156105c457600080fd5b506102956105d3366004613781565b610ff0565b6102c361107c565b3480156105ec57600080fd5b50603c610295565b34801561060057600080fd5b507f000000000000000000000000000000000000000000000000000000000000000061031a565b34801561063357600080fd5b50600054610295565b6102c361064a366004613631565b611126565b34801561065b57600080fd5b5061024a6112f8565b34801561067057600080fd5b5061029561067f366004613683565b6113db565b6102c3610692366004613856565b6113ed565b3480156106a357600080fd5b506102956106b2366004613683565b611820565b6102c36106c5366004613683565b611bd0565b3480156106d657600080fd5b506106df611c22565b604051610256919061389f565b3480156106f857600080fd5b506102c3611c94565b34801561070d57600080fd5b506102c361071c366004613683565b611ce7565b34801561072d57600080fd5b5061050261201a565b34801561074257600080fd5b506102956107513660046138f6565b6120c5565b34801561076257600080fd5b507f0000000000000000000000000000000000000000000000000000000000000000610295565b34801561079557600080fd5b506102956107a4366004613781565b6121df565b60006001600160e01b031982166385572ffb60e01b14806107da57506001600160e01b031982166301ffc9a760e01b145b92915050565b6107e933612249565b600190610813576040516308d1e19360e21b815260040161080a919061392d565b60405180910390fd5b506001600160401b0383166000908152603e60205260408120546001600160a01b0316610854576040516317cb19f160e21b815260040161080a9190613951565b5060008181526040602081905290205460ff16156108855760405163215572f160e11b815260040160405180910390fd5b6000818152604060208190529020805460ff191660011790556108aa838360036122fd565b50505050565b60006108bb60015490565b905090565b336001600160a01b037f000000000000000000000000000000000000000000000000000000000000000016811461091657604051630e7cf39b60e11b81526001600160a01b03909116600482015260240161080a565b50600063be3fbad860e01b8484846040516024016109369392919061395e565b60408051601f198184030181529190526020810180516001600160e01b03166001600160e01b03199093169290921790915290506109947f000000000000000000000000000000000000000000000000000000000000000082612639565b5050505050565b6001600160401b0381166000908152603e60205260408120546001600160a01b03166107da565b610a0b6040518060e0016040528060006001600160a01b031681526020016000815260200160008152602001600081526020016000815260200160008152602001600081525090565b50600090815260456020908152604091829020825160e08101845281546001600160a01b031681526001820154928101929092526002810154928201929092526003820154606082015260048201546080820152600582015460a082015260069091015460c082015290565b6003336001600160a01b037f00000000000000000000000000000000000000000000000000000000000000001614610ac3576040516308d1e19360e21b815260040161080a919061392d565b506000634585e33b60e01b8383604051602401610ae1929190613993565b60408051601f198184030181529190526020810180516001600160e01b03166001600160e01b03199093169290921790915290506108aa7f000000000000000000000000000000000000000000000000000000000000000082612639565b606061020a805480602002602001604051908101604052809291908181526020018280548015610b8e57602002820191906000526020600020905b815481526020019060010190808311610b7a575b5050505050905090565b610bcc604051806080016040528060006001600160a01b031681526020016000815260200160008152602001600081525090565b50600090815260426020908152604091829020825160808101845281546001600160a01b03168152600182015492810192909252600281015492820192909252600390910154606082015290565b6000336001600160a01b037f00000000000000000000000000000000000000000000000000000000000000001614610c66576040516308d1e19360e21b815260040161080a919061392d565b50610c9c6001600160a01b037f0000000000000000000000000000000000000000000000000000000000000000163330846126d5565b610cb881610ca960015490565b610cb391906139d8565b600155565b5050565b60006060600080306001600160a01b031663f3141e806040518163ffffffff1660e01b8152600401600060405180830381865afa158015610d01573d6000803e3d6000fd5b505050506040513d6000823e601f3d908101601f19168201604052610d299190810190613a30565b9097909650945050505050565b6000610d42838361273c565b9392505050565b336001600160a01b037f00000000000000000000000000000000000000000000000000000000000000001614610d94576040516335fdcccd60e21b815233600482015260240161080a565b610da5610da082613b31565b6128f6565b50565b60008181526042602052604081208054600282015491926001600160a01b039091169190610df67f0000000000000000000000000000000000000000000000000000000000000000836139d8565b6001850154909150336001600160a01b03851614610e2757604051630c92ba2960e21b815260040160405180910390fd5b8460030154421115610e4c5760405163c532381f60e01b815260040160405180910390fd5b80600003610e6d57604051630ed4bcbf60e41b815260040160405180910390fd5b6000610e79828461273c565b9050610eb06001600160a01b037f0000000000000000000000000000000000000000000000000000000000000000168630876126d5565b6040516340c10f1960e01b81526001600160a01b038681166004830152602482018390527f000000000000000000000000000000000000000000000000000000000000000016906340c10f1990604401600060405180830381600087803b158015610f1a57600080fd5b505af1158015610f2e573d6000803e3d6000fd5b50505050610f3d836000612bbf565b7f000000000000000000000000000000000000000000000000000000000000000060076000828254610f6f9190613be7565b909155505060408051858152602081018390526001600160a01b0387169189917ffdf07b7baadecc03be23c95df6e9d261146d07447ade958ec47988e840b1acd4910160405180910390a3505050600093845250506042602052506040812080546001600160a01b0319168155600181018290556002810182905560030155565b604080516024810184905260448082018490528251808303909101815260649091019091526020810180516001600160e01b031663fce32c6d60e01b1790526000908161105d7f000000000000000000000000000000000000000000000000000000000000000083612639565b9050808060200190518101906110739190613bfa565b95945050505050565b6002336001600160a01b037f000000000000000000000000000000000000000000000000000000000000000016146110c8576040516308d1e19360e21b815260040161080a919061392d565b50600780546000909155610da56001600160a01b037f0000000000000000000000000000000000000000000000000000000000000000167f000000000000000000000000000000000000000000000000000000000000000083612cec565b6002336001600160a01b037f00000000000000000000000000000000000000000000000000000000000000001614611172576040516308d1e19360e21b815260040161080a919061392d565b50603c5460006111836001836139d8565b90506000805b8381101561099457846001600160401b0316603c82815481106111ae576111ae613c13565b6000918252602090912060048204015460039091166008026101000a90046001600160401b0316036112f0576001600160401b0385166000908152603e6020526040902054603c80546001600160a01b039092169350908490811061121557611215613c13565b90600052602060002090600491828204019190066008029054906101000a90046001600160401b0316603c828154811061125157611251613c13565b90600052602060002090600491828204019190066008026101000a8154816001600160401b0302191690836001600160401b03160217905550603c80548061129b5761129b613c29565b6000828152602080822060046000199094019384040180546001600160401b03600860038716026101000a810219909116909155929093559087168152603e9091526040902080546001600160a01b03191690555b600101611189565b600080546008546001546007546040516370a0823160e01b81523060048201527f00000000000000000000000000000000000000000000000000000000000000006001600160a01b0316906370a0823190602401602060405180830381865afa158015611369573d6000803e3d6000fd5b505050506040513d601f19601f8201168201806040525081019061138d9190613bfa565b6113b7907f0000000000000000000000000000000000000000000000000000000000000000613be7565b6113c191906139d8565b6113cb9190613be7565b6113d591906139d8565b11905090565b60006107da82600a6127106001612d1d565b6002336001600160a01b037f00000000000000000000000000000000000000000000000000000000000000001614611439576040516308d1e19360e21b815260040161080a919061392d565b506001600160401b0383166000908152603e60205260409020546003906001600160a01b0390811690841603611483576040516317cb19f160e21b815260040161080a9190613951565b5060006001600160a01b0383166114ae576040516317cb19f160e21b815260040161080a9190613951565b50603c8054600181019091557fc6bb06cb7f92603de181bf256cd16846b93b752a170ff24824098b31aa008a7e6004820401805460039092166008026101000a6001600160401b03818102199093169286169081029290921790556000908152603e6020526040902080546001600160a01b0319166001600160a01b038416179055801561181b5760008284600060405160200161154e93929190613c56565b60408051808303601f19018152828252805160209091012060078084526101008401909252925060009190816020015b606081526020019060019003908161157e57905050604080517f0000000000000000000000000000000000000000000000000000000000000000602082015291925001604051602081830303815290604052816000815181106115e3576115e3613c13565b60200260200101819052507f000000000000000000000000000000000000000000000000000000000000000060405160200161162191815260200190565b6040516020818303038152906040528160018151811061164357611643613c13565b602002602001018190525060046040516020016116609190613c97565b6040516020818303038152906040528160028151811061168257611682613c13565b6020026020010181905250846040516020016116b1919060c09190911b6001600160c01b031916815260080190565b604051602081830303815290604052816003815181106116d3576116d3613c13565b6020026020010181905250816040516020016116f191815260200190565b6040516020818303038152906040528160048151811061171357611713613c13565b602002602001018190525060006040516020016117309190613cb8565b6040516020818303038152906040528160058151811061175257611752613c13565b60200260200101819052504660405160200161177091815260200190565b6040516020818303038152906040528160068151811061179257611792613c13565b60200260200101819052506000635dc9f75a60e01b826040516024016117b89190613cca565b60408051601f198184030181529190526020810180516001600160e01b03166001600160e01b03199093169290921790915290506118167f000000000000000000000000000000000000000000000000000000000000000082612639565b505050505b505050565b60007f0000000000000000000000000000000000000000000000000000000000000000821015611863576040516364b2760f60e11b815260040160405180910390fd5b6000546008546001546007546040516370a0823160e01b815230600482015284939291907f00000000000000000000000000000000000000000000000000000000000000006001600160a01b0316906370a0823190602401602060405180830381865afa1580156118d8573d6000803e3d6000fd5b505050506040513d601f19601f820116820180604052508101906118fc9190613bfa565b6119069088613be7565b61191091906139d8565b61191a9190613be7565b61192491906139d8565b111561194357604051631cf1a65160e31b815260040160405180910390fd5b60408051600480825260a08201909252600091816020015b606081526020019060019003908161195b57905050604080517f0000000000000000000000000000000000000000000000000000000000000000602082015291925001604051602081830303815290604052816000815181106119c0576119c0613c13565b60200260200101819052507f00000000000000000000000000000000000000000000000000000000000000006040516020016119fe91815260200190565b60405160208183030381529060405281600181518110611a2057611a20613c13565b60200260200101819052506001604051602001611a3d9190613c97565b60405160208183030381529060405281600281518110611a5f57611a5f613c13565b602002602001018190525046604051602001611a7d91815260200190565b60405160208183030381529060405281600381518110611a9f57611a9f613c13565b60200260200101819052506000635dc9f75a60e01b82604051602401611ac59190613cca565b60408051601f198184030181529190526020810180516001600160e01b03166001600160e01b03199093169290921790915290506000611b257f000000000000000000000000000000000000000000000000000000000000000083612639565b90506000611b3282613d2f565b90506000611b41603c42613be7565b6000838152604160209081526040808320805460ff19166001179055604282529182902080546001600160a01b031916339081178255600282018d9055600390910184905582518c8152918201849052929350829185917feb9aaadd237168a4ac14b70e452788aea49cf98bafcd0d64a94cfda748aa7edc910160405180910390a35090979650505050505050565b6002336001600160a01b037f00000000000000000000000000000000000000000000000000000000000000001614611c1c576040516308d1e19360e21b815260040161080a919061392d565b50600055565b611c2a6133ce565b604080516112c08101909152604660966000835b82821015611c8b576040805160608101825260038402860180546001600160401b031682526001808201546020808501919091526002909201549383019390935290835292019101611c3e565b50505050905090565b6040805160048152602481019091526020810180516001600160e01b0316636f2eff9b60e11b179052610cb87f000000000000000000000000000000000000000000000000000000000000000082612639565b670de0b6b3a7640000811015611d10576040516321a19cf760e01b815260040160405180910390fd5b3360008181526043602052604090205415611d3e576040516305e05f3160e11b815260040160405180910390fd5b60408051600480825260a08201909252600091816020015b6060815260200190600190039081611d5657905050604080517f000000000000000000000000000000000000000000000000000000000000000060208201529192500160405160208183030381529060405281600081518110611dbb57611dbb613c13565b60200260200101819052507f0000000000000000000000000000000000000000000000000000000000000000604051602001611df991815260200190565b60405160208183030381529060405281600181518110611e1b57611e1b613c13565b60200260200101819052506002604051602001611e389190613c97565b60405160208183030381529060405281600281518110611e5a57611e5a613c13565b602002602001018190525046604051602001611e7891815260200190565b60405160208183030381529060405281600381518110611e9a57611e9a613c13565b6020908102919091010152611eda6001600160a01b037f0000000000000000000000000000000000000000000000000000000000000000168330866126d5565b6000635dc9f75a60e01b82604051602401611ef59190613cca565b60408051601f198184030181529190526020810180516001600160e01b03166001600160e01b03199093169290921790915290506000611f557f000000000000000000000000000000000000000000000000000000000000000083612639565b90506000611f6282613d2f565b6040516bffffffffffffffffffffffff19606088901b166020820152603481018890524360548201526074810182905290915060009060940160408051808303601f190181529181528151602092830120600085815260418452828120805460ff191660021790558181526045845282812080546001600160a01b0319166001600160a01b039b909b169a8b1781556001019a909a559389526044825280892084905596885260439052509390942092909255505050565b60408051602081018252600080825291516060918391636e04ff0d60e01b9161204591602401613d56565b60408051601f198184030181529190526020810180516001600160e01b03166001600160e01b031990931692909217909152905060006120a57f000000000000000000000000000000000000000000000000000000000000000083612639565b9050808060200190518101906120bb9190613a30565b9350935050509091565b600080336001600160a01b037f00000000000000000000000000000000000000000000000000000000000000001614612112576040516308d1e19360e21b815260040161080a919061392d565b5060006001600160a01b03831661213d576040516317cb19f160e21b815260040161080a9190613951565b507f00000000000000000000000000000000000000000000000000000000000000006001600160a01b0316846001600160a01b031614600290612194576040516317cb19f160e21b815260040161080a9190613951565b506121ac836121a260015490565b610cb39190613be7565b60006121b7846113db565b6121c190856139d8565b90506121d76001600160a01b0386168483612cec565b949350505050565b604051634d3e1e2960e11b815260048101839052602481018290526000903090639a7c3c5290604401602060405180830381865afa158015612225573d6000803e3d6000fd5b505050506040513d601f19601f82011682018060405250810190610d429190613bfa565b60007f00000000000000000000000000000000000000000000000000000000000000006001600160a01b0316826001600160a01b031614806122bc57507f00000000000000000000000000000000000000000000000000000000000000006001600160a01b0316826001600160a01b0316145b806107da57507f00000000000000000000000000000000000000000000000000000000000000006001600160a01b0316826001600160a01b03161492915050565b600060606000604051806040016040528085600381111561232057612320613751565b8152602001836040516020016123369190613d69565b60408051601f1981840301815291815291526001600160401b0388166000908152603e602052908120549192506001600160a01b039091169061239b827f00000000000000000000000000000000000000000000000000000000000000008986612d61565b905060007f00000000000000000000000000000000000000000000000000000000000000006001600160a01b03166320487ded8a846040518363ffffffff1660e01b81526004016123ed929190613db6565b602060405180830381865afa15801561240a573d6000803e3d6000fd5b505050506040513d601f19601f8201168201806040525081019061242e9190613bfa565b60405163095ea7b360e01b81526001600160a01b037f000000000000000000000000000000000000000000000000000000000000000081166004830152602482018b90529192507f00000000000000000000000000000000000000000000000000000000000000009091169063095ea7b3906044016020604051808303816000875af11580156124c2573d6000803e3d6000fd5b505050506040513d601f19601f820116820180604052508101906124e69190613e96565b5060405163095ea7b360e01b81526001600160a01b037f000000000000000000000000000000000000000000000000000000000000000081166004830152602482018390527f0000000000000000000000000000000000000000000000000000000000000000169063095ea7b3906044016020604051808303816000875af1158015612576573d6000803e3d6000fd5b505050506040513d601f19601f8201168201806040525081019061259a9190613e96565b506040516396f4e9f960e01b81526001600160a01b037f000000000000000000000000000000000000000000000000000000000000000016906396f4e9f9906125e9908c908690600401613db6565b6020604051808303816000875af1158015612608573d6000803e3d6000fd5b505050506040513d601f19601f8201168201806040525081019061262c9190613bfa565b9998505050505050505050565b606060006001600160a01b038416612665576040516317cb19f160e21b815260040161080a9190613951565b50600080846001600160a01b0316846040516126819190613eb3565b600060405180830381855af49150503d80600081146126bc576040519150601f19603f3d011682016040523d82523d6000602084013e6126c1565b606091505b5091509150816121d7578051602082018181fd5b6040516001600160a01b0384811660248301528381166044830152606482018390526108aa9186918216906323b872dd906084015b604051602081830303815290604052915060e01b6020820180516001600160e01b038381831617835250505050612f09565b6007546005546001546040516370a0823160e01b81523060048201526000938493909290916001600160a01b037f000000000000000000000000000000000000000000000000000000000000000016906370a0823190602401602060405180830381865afa1580156127b2573d6000803e3d6000fd5b505050506040513d601f19601f820116820180604052508101906127d69190613bfa565b6127e09190613be7565b6127ea9190613be7565b6127f491906139d8565b905060006128028286613be7565b905060007f00000000000000000000000000000000000000000000000000000000000000006001600160a01b03166318160ddd6040518163ffffffff1660e01b8152600401602060405180830381865afa158015612864573d6000803e3d6000fd5b505050506040513d601f19601f820116820180604052508101906128889190613bfa565b9050806000036128a55761289b85612f7a565b93505050506107da565b60006128b083612f7a565b905060006128bd87612f7a565b90508282816128cc8483613be7565b6128d69190613ecf565b6128e09190613efc565b6128ea91906139d8565b98975050505050505050565b806020015181604001518060200190518101906129139190613f10565b806001600160a01b0316612945836001600160401b03166000908152603e60205260409020546001600160a01b031690565b6001600160a01b031614600590612970576040516308d1e19360e21b815260040161080a919061392d565b506000836060015180602001905181019061298b9190613f2d565b9050600084608001516000815181106129a6576129a6613c13565b6020026020010151602001519050600085608001516000815181106129cd576129cd613c13565b60200260200101516000015190507f00000000000000000000000000000000000000000000000000000000000000006001600160a01b0316816001600160a01b031614600290612a31576040516317cb19f160e21b815260040161080a9190613951565b50600283516003811115612a4757612a47613751565b03612b215760008360200151806020019051810190612a669190613bfa565b60008181526045602052604090206003810154919250908290612a9f57604051635d22619760e11b815260040161080a91815260200190565b508381600501541015612ab3576000612ac3565b838160050154612ac391906139d8565b6005820155600954841115612ad9576000612ae7565b83600954612ae791906139d8565b6009819055508360086000828254612aff9190613be7565b90915550506005810154600a1115612b1a57612b1a82612f9c565b5050612b3a565b604051635220de2f60e11b815260040160405180910390fd5b85600001517f8b047d148394eedc8fcd21d97a72e23b8c446ebf1ee926a0b642299ad89fa4b187602001518860400151806020019051810190612b7d9190613f10565b604080516001600160401b0390931683526001600160a01b039182166020840152908516908201526060810185905260800160405180910390a2505050505050565b6000603c805480602002602001604051908101604052809291908181526020018280548015612c3f57602002820191906000526020600020906000905b82829054906101000a90046001600160401b03166001600160401b031681526020019060080190602082600701049283019260010382029150808411612bfc5790505b50508351939450600092506402540be4009150612c5f9050836001613be7565b612c6e6402540be40088613ecf565b612c789190613efc565b612c829190613efc565b905060005b82811015612ce4576000612cb5858381518110612ca657612ca6613c13565b602002602001015184886122fd565b9050612cdb81868481518110612ccd57612ccd613c13565b60200260200101518561315e565b50600101612c87565b505050505050565b6040516001600160a01b0383811660248301526044820183905261181b91859182169063a9059cbb9060640161270a565b6000612d4c612d2b83613254565b8015612d47575060008480612d4257612d42613ee6565b868809115b151590565b612d57868686613281565b6110739190613be7565b612d9c6040518060a0016040528060608152602001606081526020016060815260200160006001600160a01b03168152602001606081525090565b604080516001808252818301909252600091816020015b6040805180820190915260008082526020820152815260200190600190039081612db35790505090506040518060400160405280866001600160a01b031681526020018581525081600081518110612e0d57612e0d613c13565b60209081029190910101526040805160a081019091526001600160a01b03871660c08201528060e08101604051602081830303815290604052815260200184604051602001612e5c9190613fb3565b60405160208183030381529060405281526020018281526020017f00000000000000000000000000000000000000000000000000000000000000006001600160a01b03168152602001612efd6040518060200160405280620493e063ffffffff1681525060408051915160248084019190915281518084039091018152604490920190526020810180516001600160e01b03166397a657c960e01b17905290565b90529695505050505050565b600080602060008451602086016000885af180612f2c576040513d6000823e3d81fd5b50506000513d91508115612f44578060011415612f51565b6001600160a01b0384163b155b156108aa57604051635274afe760e01b81526001600160a01b038516600482015260240161080a565b6000620f4240612f92670de0b6b3a764000084613ecf565b6107da9190613efc565b60008181526045602052604090206003810154815460018301546008546001600160a01b03909216918310612fd2576000612fe0565b82600854612fe091906139d8565b6008556001600160a01b038281166000908152604360209081526040808320839055888352604590915280822080546001600160a01b031916815560018101839055600281018390556003810183905560048082018490556005820184905560069091019290925551630852cd8d60e31b81529081018390527f0000000000000000000000000000000000000000000000000000000000000000909116906342966c6890602401600060405180830381600087803b1580156130a157600080fd5b505af11580156130b5573d6000803e3d6000fd5b506130ef9250506001600160a01b037f00000000000000000000000000000000000000000000000000000000000000001690508385612cec565b604080516001600160a01b037f0000000000000000000000000000000000000000000000000000000000000000811682526020820186905284169187917f078355a5c5497271cb4931fd64c9c4508e55b72009043b3efc749e697e48d14e910160405180910390a35050505050565b600061316c60016096613fe3565b60065460ff9182169116106131885761318361333c565b6131b3565b6006805460009061319b9060ff16613ffc565b91906101000a81548160ff021916908360ff16021790555b90506040518060600160405280846001600160401b031681526020018581526020018381525060468260ff16609681106131ef576131ef613c13565b6003020160008201518160000160006101000a8154816001600160401b0302191690836001600160401b03160217905550602082015181600101556040820151816002015590505081600560008282546132499190613be7565b909155505050505050565b6000600282600381111561326a5761326a613751565b613274919061401b565b60ff166001149050919050565b60008383028160001985870982811083820303915050806000036132b8578382816132ae576132ae613ee6565b0492505050610d42565b8084116132cf576132cf60038515026011186133bc565b6000848688096000868103871696879004966002600389028118808a02820302808a02820302808a02820302808a02820302808a02820302808a02909103029181900381900460010186841190950394909402919094039290920491909117919091029150509392505050565b60008060015b609660ff82161015613392576000604660ff83166096811061336657613366613c13565b60030201600101540361338a576006805460ff191660ff8316179055905080613392565b600101613342565b508060ff166000036133b757604051631e0fc5a560e11b815260040160405180910390fd5b919050565b634e487b71600052806020526024601cfd5b604051806112c001604052806096905b60408051606081018252600080825260208083018290529282015282526000199092019101816133de5790505090565b60006020828403121561342057600080fd5b81356001600160e01b031981168114610d4257600080fd5b6001600160a01b0381168114610da557600080fd5b60006020828403121561345f57600080fd5b8135610d4281613438565b80356001600160401b03811681146133b757600080fd5b60008060006060848603121561349657600080fd5b61349f8461346a565b95602085013595506040909401359392505050565b634e487b7160e01b600052604160045260246000fd5b604080519081016001600160401b03811182821017156134ec576134ec6134b4565b60405290565b60405160a081016001600160401b03811182821017156134ec576134ec6134b4565b604051601f8201601f191681016001600160401b038111828210171561353c5761353c6134b4565b604052919050565b60006001600160401b0382111561355d5761355d6134b4565b50601f01601f191660200190565b600082601f83011261357c57600080fd5b813561358f61358a82613544565b613514565b8181528460208386010111156135a457600080fd5b816020850160208301376000918101602001919091529392505050565b6000806000606084860312156135d657600080fd5b8335925060208401356001600160401b038111156135f357600080fd5b6135ff8682870161356b565b92505060408401356001600160401b0381111561361b57600080fd5b6136278682870161356b565b9150509250925092565b60006020828403121561364357600080fd5b610d428261346a565b6000806040838503121561365f57600080fd5b6136688361346a565b9150602083013561367881613438565b809150509250929050565b60006020828403121561369557600080fd5b5035919050565b600080602083850312156136af57600080fd5b82356001600160401b038111156136c557600080fd5b8301601f810185136136d657600080fd5b80356001600160401b038111156136ec57600080fd5b8560208284010111156136fe57600080fd5b6020919091019590945092505050565b602080825282518282018190526000918401906040840190835b81811015613746578351835260209384019390920191600101613728565b509095945050505050565b634e487b7160e01b600052602160045260246000fd5b602081016005831061377b5761377b613751565b91905290565b6000806040838503121561379457600080fd5b50508035926020909101359150565b60005b838110156137be5781810151838201526020016137a6565b50506000910152565b600081518084526137df8160208601602086016137a3565b601f01601f19169290920160200192915050565b82151581526040602082015260006121d760408301846137c7565b60006020828403121561382057600080fd5b81356001600160401b0381111561383657600080fd5b820160a08185031215610d4257600080fd5b8015158114610da557600080fd5b60008060006060848603121561386b57600080fd5b6138748461346a565b9250602084013561388481613438565b9150604084013561389481613848565b809150509250925092565b6138408101818360005b60968110156138ed5781516001600160401b0381511684526020810151602085015260408101516040850152506060830192506020820191506001810190506138a9565b50505092915050565b60008060006060848603121561390b57600080fd5b833561391681613438565b925060208401359150604084013561389481613438565b602081016006831061377b5761377b613751565b60048110610da557610da5613751565b6020810161377b83613941565b83815260606020820152600061397760608301856137c7565b828103604084015261398981856137c7565b9695505050505050565b60208152816020820152818360408301376000818301604090810191909152601f909201601f19160101919050565b634e487b7160e01b600052601160045260246000fd5b818103818111156107da576107da6139c2565b600082601f8301126139fc57600080fd5b8151613a0a61358a82613544565b818152846020838601011115613a1f57600080fd5b6121d78260208301602087016137a3565b60008060408385031215613a4357600080fd5b8251613a4e81613848565b60208401519092506001600160401b03811115613a6a57600080fd5b613a76858286016139eb565b9150509250929050565b600082601f830112613a9157600080fd5b81356001600160401b03811115613aaa57613aaa6134b4565b613ab960208260051b01613514565b8082825260208201915060208360061b860101925085831115613adb57600080fd5b602085015b83811015613b275760408188031215613af857600080fd5b613b006134ca565b8135613b0b81613438565b8152602082810135818301529084529290920191604001613ae0565b5095945050505050565b600060a08236031215613b4357600080fd5b613b4b6134f2565b82358152613b5b6020840161346a565b602082015260408301356001600160401b03811115613b7957600080fd5b613b853682860161356b565b60408301525060608301356001600160401b03811115613ba457600080fd5b613bb03682860161356b565b60608301525060808301356001600160401b03811115613bcf57600080fd5b613bdb36828601613a80565b60808301525092915050565b808201808211156107da576107da6139c2565b600060208284031215613c0c57600080fd5b5051919050565b634e487b7160e01b600052603260045260246000fd5b634e487b7160e01b600052603160045260246000fd5b60028110613c4f57613c4f613751565b60f81b9052565b606084901b6bffffffffffffffffffffffff1916815260c083901b6001600160c01b0319166014820152613c8d601c820183613c3f565b601d019392505050565b600060058310613ca957613ca9613751565b5060f89190911b815260010190565b613cc28183613c3f565b600101919050565b6000602082016020835280845180835260408501915060408160051b86010192506020860160005b82811015613d2357603f19878603018452613d0e8583516137c7565b94506020938401939190910190600101613cf2565b50929695505050505050565b80516020808301519190811015613d50576000198160200360031b1b821691505b50919050565b602081526000610d4260208301846137c7565b602080825282518282018190526000918401906040840190835b81811015613746578351805184526020908101516001600160a01b03168185015290930192604090920191600101613d83565b6001600160401b0383168152604060208201526000825160a06040840152613de160e08401826137c7565b90506020840151603f19848303016060850152613dfe82826137c7565b6040860151858203603f19016080870152805180835260209182019450600093509101905b80831015613e5a57835180516001600160a01b03168352602090810151818401529093019260019290920191604090910190613e23565b5060608601516001600160a01b031660a08601526080860151858203603f190160c08701529250613e8b81846137c7565b979650505050505050565b600060208284031215613ea857600080fd5b8151610d4281613848565b60008251613ec58184602087016137a3565b9190910192915050565b80820281158282048414176107da576107da6139c2565b634e487b7160e01b600052601260045260246000fd5b600082613f0b57613f0b613ee6565b500490565b600060208284031215613f2257600080fd5b8151610d4281613438565b600060208284031215613f3f57600080fd5b81516001600160401b03811115613f5557600080fd5b820160408185031215613f6757600080fd5b613f6f6134ca565b815160048110613f7e57600080fd5b815260208201516001600160401b03811115613f9957600080fd5b613fa5868285016139eb565b602083015250949350505050565b6020815260008251613fc481613941565b8060208401525060208301516040808401526121d760608401826137c7565b60ff82811682821603908111156107da576107da6139c2565b600060ff821660ff8103614012576140126139c2565b60010192915050565b600060ff83168061402e5761402e613ee6565b8060ff8416069150509291505056fea2646970667358221220ed87f021b97a5254680434089e73fddac94252b1d22f44d5dac665db59c65aa764736f6c634300081c0033",
	"linkReferences": {},
	"deployedLinkReferences": {}
}